:020000020000FC
:0200000004C03A
:02000400C9C071
:100008004FC104E00EBF0FEF0DBF0AE20093690075
:1000180003E00DBB0CBB03EC0AB90CE30BB900EF12
:1000280004B90FE005B90FEF01B907B90FEF08B927
:1000380002B900C0789400271127222733274427C4
:100048005395662777278827992700C005D0282F3A
:100058002FD058D068D0FACF189B0BC0199B0EC070
:100068001A9B11C01B9B14C04C9B17C04D9B18C0FA
:1000780008952C9A2D982E982F98EECF2D9A2C987B
:100088002E982F98E9CF2E9A2C982D982F98E4CF58
:100098002F9A2C982D982E98DFCF83956BD0DCCF94
:1000A8008A95803014F066D0D7CF80E063D0D4CF63
:1000B800112708EE43E000C0201B340B10F0139505
:1000C800FBCF10930001112708EE43E0200F341FE7
:1000D80000C024560027300B10F01395FACF109368
:1000E800010111272C593F5F00C02A500027300B0F
:1000F80010F01395FACF10930201265F3F5F20930B
:1001080003010895B1E0A0E0D1E0C4E014E000C02C
:10011800F2E0ECEA0D91E00F0027F01F049109933B
:100128001A95B1F708950FEF08B90091070102B9C0
:100138000EEF08B90E94C8000FEF08B90091060138
:1001480002B90DEF08B90E94C8000FEF08B9009175
:10015800050102B90BEF08B90E94C8000FEF08B9F2
:100168000091040102B907EF08B90E94C8000FEF17
:1001780008B90895D2E0E5E4FAEAFA95F1F7EA95C4
:10018800E1F7DA95D1F708959FEF9A95F1F7089579
:1001980000271127222704E05130F9F15230F9F1F4
:1001A8005330F9F15430F9F15530F9F100C04617E0
:1001B800F9F110170CF0ECCF103039F0113079F05C
:1001C8001230B9F01330F9F0F2CF139543952DE3BF
:1001D8002BB922E022B927E028B9CCDFE8CF139564
:1001E80043952EE32BB920E422B92BE028B9C2DFCE
:1001F800DECF139543952CE72BB928E022B92DE0E3
:1002080028B9B8DFD4CF139543952CEB2BB927E445
:1002180022B92EE028B9AEDFCACF67E1C8CF64E1C2
:10022800C6CF6AE1C4CF69E1C2CF65E150E0BFCF74
:10023800489906C0499908C04E990AC04F990CC000
:100248007AE01C990DC015C074E11D9909C011C050
:1002580072E31E9905C00DC07BE71F9901C009C054
:10026800072F482F049F202D312D22DF4BDF5BDF26
:100278000BC000E040E0049F202D312D19DF42DF44
:1002880052DF80E0282F18954B9B189500C0072F48
:10029800482F049F202D312D0BDF34DF44DFF4CFAE
:0E02A800B0CE1895407924301912027800105B
:00000001FF
